{
  "_format": "hh-sol-artifact-1",
  "contractName": "NFTCollection",
  "sourceName": "contracts/NFT.sol",
  "abi": [
    {
      "inputs": [
        {
          "internalType": "string",
          "name": "name",
          "type": "string"
        },
        {
          "internalType": "string",
          "name": "Symbol",
          "type": "string"
        }
      ],
      "stateMutability": "nonpayable",
      "type": "constructor"
    },
    {
      "anonymous": false,
      "inputs": [
        {
          "indexed": true,
          "internalType": "address",
          "name": "owner",
          "type": "address"
        },
        {
          "indexed": true,
          "internalType": "address",
          "name": "approved",
          "type": "address"
        },
        {
          "indexed": true,
          "internalType": "uint256",
          "name": "tokenId",
          "type": "uint256"
        }
      ],
      "name": "Approval",
      "type": "event"
    },
    {
      "anonymous": false,
      "inputs": [
        {
          "indexed": true,
          "internalType": "address",
          "name": "owner",
          "type": "address"
        },
        {
          "indexed": true,
          "internalType": "address",
          "name": "operator",
          "type": "address"
        },
        {
          "indexed": false,
          "internalType": "bool",
          "name": "approved",
          "type": "bool"
        }
      ],
      "name": "ApprovalForAll",
      "type": "event"
    },
    {
      "anonymous": false,
      "inputs": [
        {
          "indexed": true,
          "internalType": "address",
          "name": "previousOwner",
          "type": "address"
        },
        {
          "indexed": true,
          "internalType": "address",
          "name": "newOwner",
          "type": "address"
        }
      ],
      "name": "OwnershipTransferred",
      "type": "event"
    },
    {
      "anonymous": false,
      "inputs": [
        {
          "indexed": true,
          "internalType": "address",
          "name": "from",
          "type": "address"
        },
        {
          "indexed": true,
          "internalType": "address",
          "name": "to",
          "type": "address"
        },
        {
          "indexed": true,
          "internalType": "uint256",
          "name": "tokenId",
          "type": "uint256"
        }
      ],
      "name": "Transfer",
      "type": "event"
    },
    {
      "inputs": [
        {
          "internalType": "address",
          "name": "to",
          "type": "address"
        },
        {
          "internalType": "uint256",
          "name": "tokenId",
          "type": "uint256"
        }
      ],
      "name": "approve",
      "outputs": [],
      "stateMutability": "nonpayable",
      "type": "function"
    },
    {
      "inputs": [
        {
          "internalType": "address",
          "name": "owner",
          "type": "address"
        }
      ],
      "name": "balanceOf",
      "outputs": [
        {
          "internalType": "uint256",
          "name": "",
          "type": "uint256"
        }
      ],
      "stateMutability": "view",
      "type": "function"
    },
    {
      "inputs": [
        {
          "internalType": "string",
          "name": "tokenURI",
          "type": "string"
        }
      ],
      "name": "createCollectible",
      "outputs": [
        {
          "internalType": "uint256",
          "name": "",
          "type": "uint256"
        }
      ],
      "stateMutability": "nonpayable",
      "type": "function"
    },
    {
      "inputs": [
        {
          "internalType": "uint256",
          "name": "tokenId",
          "type": "uint256"
        }
      ],
      "name": "getApproved",
      "outputs": [
        {
          "internalType": "address",
          "name": "",
          "type": "address"
        }
      ],
      "stateMutability": "view",
      "type": "function"
    },
    {
      "inputs": [
        {
          "internalType": "address",
          "name": "owner",
          "type": "address"
        },
        {
          "internalType": "address",
          "name": "operator",
          "type": "address"
        }
      ],
      "name": "isApprovedForAll",
      "outputs": [
        {
          "internalType": "bool",
          "name": "",
          "type": "bool"
        }
      ],
      "stateMutability": "view",
      "type": "function"
    },
    {
      "inputs": [],
      "name": "name",
      "outputs": [
        {
          "internalType": "string",
          "name": "",
          "type": "string"
        }
      ],
      "stateMutability": "view",
      "type": "function"
    },
    {
      "inputs": [],
      "name": "owner",
      "outputs": [
        {
          "internalType": "address",
          "name": "",
          "type": "address"
        }
      ],
      "stateMutability": "view",
      "type": "function"
    },
    {
      "inputs": [
        {
          "internalType": "uint256",
          "name": "tokenId",
          "type": "uint256"
        }
      ],
      "name": "ownerOf",
      "outputs": [
        {
          "internalType": "address",
          "name": "",
          "type": "address"
        }
      ],
      "stateMutability": "view",
      "type": "function"
    },
    {
      "inputs": [],
      "name": "renounceOwnership",
      "outputs": [],
      "stateMutability": "nonpayable",
      "type": "function"
    },
    {
      "inputs": [
        {
          "internalType": "address",
          "name": "from",
          "type": "address"
        },
        {
          "internalType": "address",
          "name": "to",
          "type": "address"
        },
        {
          "internalType": "uint256",
          "name": "tokenId",
          "type": "uint256"
        }
      ],
      "name": "safeTransferFrom",
      "outputs": [],
      "stateMutability": "nonpayable",
      "type": "function"
    },
    {
      "inputs": [
        {
          "internalType": "address",
          "name": "from",
          "type": "address"
        },
        {
          "internalType": "address",
          "name": "to",
          "type": "address"
        },
        {
          "internalType": "uint256",
          "name": "tokenId",
          "type": "uint256"
        },
        {
          "internalType": "bytes",
          "name": "_data",
          "type": "bytes"
        }
      ],
      "name": "safeTransferFrom",
      "outputs": [],
      "stateMutability": "nonpayable",
      "type": "function"
    },
    {
      "inputs": [
        {
          "internalType": "address",
          "name": "operator",
          "type": "address"
        },
        {
          "internalType": "bool",
          "name": "approved",
          "type": "bool"
        }
      ],
      "name": "setApprovalForAll",
      "outputs": [],
      "stateMutability": "nonpayable",
      "type": "function"
    },
    {
      "inputs": [
        {
          "internalType": "bytes4",
          "name": "interfaceId",
          "type": "bytes4"
        }
      ],
      "name": "supportsInterface",
      "outputs": [
        {
          "internalType": "bool",
          "name": "",
          "type": "bool"
        }
      ],
      "stateMutability": "view",
      "type": "function"
    },
    {
      "inputs": [],
      "name": "symbol",
      "outputs": [
        {
          "internalType": "string",
          "name": "",
          "type": "string"
        }
      ],
      "stateMutability": "view",
      "type": "function"
    },
    {
      "inputs": [
        {
          "internalType": "uint256",
          "name": "tokenId",
          "type": "uint256"
        }
      ],
      "name": "tokenURI",
      "outputs": [
        {
          "internalType": "string",
          "name": "",
          "type": "string"
        }
      ],
      "stateMutability": "view",
      "type": "function"
    },
    {
      "inputs": [],
      "name": "totalSupply",
      "outputs": [
        {
          "internalType": "uint256",
          "name": "",
          "type": "uint256"
        }
      ],
      "stateMutability": "view",
      "type": "function"
    },
    {
      "inputs": [
        {
          "internalType": "address",
          "name": "from",
          "type": "address"
        },
        {
          "internalType": "address",
          "name": "to",
          "type": "address"
        },
        {
          "internalType": "uint256",
          "name": "tokenId",
          "type": "uint256"
        }
      ],
      "name": "transferFrom",
      "outputs": [],
      "stateMutability": "nonpayable",
      "type": "function"
    },
    {
      "inputs": [
        {
          "internalType": "address",
          "name": "newOwner",
          "type": "address"
        }
      ],
      "name": "transferOwnership",
      "outputs": [],
      "stateMutability": "nonpayable",
      "type": "function"
    }
  ],
  "bytecode": "0x60806040523480156200001157600080fd5b506040516200356938038062003569833981810160405281019062000037919062000291565b818181600090805190602001906200005192919062000163565b5080600190805190602001906200006a92919062000163565b5050506200008d620000816200009560201b60201c565b6200009d60201b60201c565b50506200049a565b600033905090565b6000600760009054906101000a900473ffffffffffffffffffffffffffffffffffffffff16905081600760006101000a81548173ffffffffffffffffffffffffffffffffffffffff021916908373ffffffffffffffffffffffffffffffffffffffff1602179055508173ffffffffffffffffffffffffffffffffffffffff168173ffffffffffffffffffffffffffffffffffffffff167f8be0079c531659141344cd1fd0a4f28419497f9722a3daafe3b4186f6b6457e060405160405180910390a35050565b8280546200017190620003ab565b90600052602060002090601f016020900481019282620001955760008555620001e1565b82601f10620001b057805160ff1916838001178555620001e1565b82800160010185558215620001e1579182015b82811115620001e0578251825591602001919060010190620001c3565b5b509050620001f09190620001f4565b5090565b5b808211156200020f576000816000905550600101620001f5565b5090565b60006200022a62000224846200033f565b62000316565b9050828152602081018484840111156200024957620002486200047a565b5b6200025684828562000375565b509392505050565b600082601f83011262000276576200027562000475565b5b81516200028884826020860162000213565b91505092915050565b60008060408385031215620002ab57620002aa62000484565b5b600083015167ffffffffffffffff811115620002cc57620002cb6200047f565b5b620002da858286016200025e565b925050602083015167ffffffffffffffff811115620002fe57620002fd6200047f565b5b6200030c858286016200025e565b9150509250929050565b60006200032262000335565b9050620003308282620003e1565b919050565b6000604051905090565b600067ffffffffffffffff8211156200035d576200035c62000446565b5b620003688262000489565b9050602081019050919050565b60005b838110156200039557808201518184015260208101905062000378565b83811115620003a5576000848401525b50505050565b60006002820490506001821680620003c457607f821691505b60208210811415620003db57620003da62000417565b5b50919050565b620003ec8262000489565b810181811067ffffffffffffffff821117156200040e576200040d62000446565b5b80604052505050565b7f4e487b7100000000000000000000000000000000000000000000000000000000600052602260045260246000fd5b7f4e487b7100000000000000000000000000000000000000000000000000000000600052604160045260246000fd5b600080fd5b600080fd5b600080fd5b600080fd5b6000601f19601f8301169050919050565b6130bf80620004aa6000396000f3fe608060405234801561001057600080fd5b50600436106101165760003560e01c806370a08231116100a2578063a22cb46511610071578063a22cb465146102e1578063b88d4fde146102fd578063c87b56dd14610319578063e985e9c514610349578063f2fde38b1461037957610116565b806370a082311461026b578063715018a61461029b5780638da5cb5b146102a557806395d89b41146102c357610116565b806318160ddd116100e957806318160ddd146101b557806323b872dd146101d357806331f1f3c3146101ef57806342842e0e1461021f5780636352211e1461023b57610116565b806301ffc9a71461011b57806306fdde031461014b578063081812fc14610169578063095ea7b314610199575b600080fd5b61013560048036038101906101309190611fd6565b610395565b6040516101429190612477565b60405180910390f35b610153610477565b6040516101609190612492565b60405180910390f35b610183600480360381019061017e9190612079565b610509565b6040516101909190612410565b60405180910390f35b6101b360048036038101906101ae9190611f96565b61058e565b005b6101bd6106a6565b6040516101ca91906126f4565b60405180910390f35b6101ed60048036038101906101e89190611e80565b6106b7565b005b61020960048036038101906102049190612030565b610717565b60405161021691906126f4565b60405180910390f35b61023960048036038101906102349190611e80565b6107ca565b005b61025560048036038101906102509190612079565b6107ea565b6040516102629190612410565b60405180910390f35b61028560048036038101906102809190611e13565b61089c565b60405161029291906126f4565b60405180910390f35b6102a3610954565b005b6102ad6109dc565b6040516102ba9190612410565b60405180910390f35b6102cb610a06565b6040516102d89190612492565b60405180910390f35b6102fb60048036038101906102f69190611f56565b610a98565b005b61031760048036038101906103129190611ed3565b610aae565b005b610333600480360381019061032e9190612079565b610b10565b6040516103409190612492565b60405180910390f35b610363600480360381019061035e9190611e40565b610c62565b6040516103709190612477565b60405180910390f35b610393600480360381019061038e9190611e13565b610cf6565b005b60007f80ac58cd000000000000000000000000000000000000000000000000000000007bffffffffffffffffffffffffffffffffffffffffffffffffffffffff1916827bffffffffffffffffffffffffffffffffffffffffffffffffffffffff1916148061046057507f5b5e139f000000000000000000000000000000000000000000000000000000007bffffffffffffffffffffffffffffffffffffffffffffffffffffffff1916827bffffffffffffffffffffffffffffffffffffffffffffffffffffffff1916145b80610470575061046f82610dee565b5b9050919050565b6060600080546104869061294a565b80601f01602080910402602001604051908101604052809291908181526020018280546104b29061294a565b80156104ff5780601f106104d4576101008083540402835291602001916104ff565b820191906000526020600020905b8154815290600101906020018083116104e257829003601f168201915b5050505050905090565b600061051482610e58565b610553576040517f08c379a000000000000000000000000000000000000000000000000000000000815260040161054a90612654565b60405180910390fd5b6004600083815260200190815260200160002060009054906101000a900473ffffffffffffffffffffffffffffffffffffffff169050919050565b6000610599826107ea565b90508073ffffffffffffffffffffffffffffffffffffffff168373ffffffffffffffffffffffffffffffffffffffff16141561060a576040517f08c379a0000000000000000000000000000000000000000000000000000000008152600401610601906126b4565b60405180910390fd5b8073ffffffffffffffffffffffffffffffffffffffff16610629610ec4565b73ffffffffffffffffffffffffffffffffffffffff161480610658575061065781610652610ec4565b610c62565b5b610697576040517f08c379a000000000000000000000000000000000000000000000000000000000815260040161068e90612594565b60405180910390fd5b6106a18383610ecc565b505050565b60006106b26008610f85565b905090565b6106c86106c2610ec4565b82610f93565b610707576040517f08c379a00000000000000000000000000000000000000000000000000000000081526004016106fe906126d4565b60405180910390fd5b610712838383611071565b505050565b6000610721610ec4565b73ffffffffffffffffffffffffffffffffffffffff1661073f6109dc565b73ffffffffffffffffffffffffffffffffffffffff1614610795576040517f08c379a000000000000000000000000000000000000000000000000000000000815260040161078c90612674565b60405180910390fd5b61079f60086112d8565b60006107ab6008610f85565b90506107b733826112ee565b6107c1818461130c565b80915050919050565b6107e583838360405180602001604052806000815250610aae565b505050565b6000806002600084815260200190815260200160002060009054906101000a900473ffffffffffffffffffffffffffffffffffffffff169050600073ffffffffffffffffffffffffffffffffffffffff168173ffffffffffffffffffffffffffffffffffffffff161415610893576040517f08c379a000000000000000000000000000000000000000000000000000000000815260040161088a906125d4565b60405180910390fd5b80915050919050565b60008073ffffffffffffffffffffffffffffffffffffffff168273ffffffffffffffffffffffffffffffffffffffff16141561090d576040517f08c379a0000000000000000000000000000000000000000000000000000000008152600401610904906125b4565b60405180910390fd5b600360008373ffffffffffffffffffffffffffffffffffffffff1673ffffffffffffffffffffffffffffffffffffffff168152602001908152602001600020549050919050565b61095c610ec4565b73ffffffffffffffffffffffffffffffffffffffff1661097a6109dc565b73ffffffffffffffffffffffffffffffffffffffff16146109d0576040517f08c379a00000000000000000000000000000000000000000000000000000000081526004016109c790612674565b60405180910390fd5b6109da6000611380565b565b6000600760009054906101000a900473ffffffffffffffffffffffffffffffffffffffff16905090565b606060018054610a159061294a565b80601f0160208091040260200160405190810160405280929190818152602001828054610a419061294a565b8015610a8e5780601f10610a6357610100808354040283529160200191610a8e565b820191906000526020600020905b815481529060010190602001808311610a7157829003601f168201915b5050505050905090565b610aaa610aa3610ec4565b8383611446565b5050565b610abf610ab9610ec4565b83610f93565b610afe576040517f08c379a0000000000000000000000000000000000000000000000000000000008152600401610af5906126d4565b60405180910390fd5b610b0a848484846115b3565b50505050565b6060610b1b82610e58565b610b5a576040517f08c379a0000000000000000000000000000000000000000000000000000000008152600401610b5190612634565b60405180910390fd5b6000600660008481526020019081526020016000208054610b7a9061294a565b80601f0160208091040260200160405190810160405280929190818152602001828054610ba69061294a565b8015610bf35780601f10610bc857610100808354040283529160200191610bf3565b820191906000526020600020905b815481529060010190602001808311610bd657829003601f168201915b505050505090506000610c0461160f565b9050600081511415610c1a578192505050610c5d565b600082511115610c4f578082604051602001610c379291906123ec565b60405160208183030381529060405292505050610c5d565b610c5884611626565b925050505b919050565b6000600560008473ffffffffffffffffffffffffffffffffffffffff1673ffffffffffffffffffffffffffffffffffffffff16815260200190815260200160002060008373ffffffffffffffffffffffffffffffffffffffff1673ffffffffffffffffffffffffffffffffffffffff16815260200190815260200160002060009054906101000a900460ff16905092915050565b610cfe610ec4565b73ffffffffffffffffffffffffffffffffffffffff16610d1c6109dc565b73ffffffffffffffffffffffffffffffffffffffff1614610d72576040517f08c379a0000000000000000000000000000000000000000000000000000000008152600401610d6990612674565b60405180910390fd5b600073ffffffffffffffffffffffffffffffffffffffff168173ffffffffffffffffffffffffffffffffffffffff161415610de2576040517f08c379a0000000000000000000000000000000000000000000000000000000008152600401610dd9906124d4565b60405180910390fd5b610deb81611380565b50565b60007f01ffc9a7000000000000000000000000000000000000000000000000000000007bffffffffffffffffffffffffffffffffffffffffffffffffffffffff1916827bffffffffffffffffffffffffffffffffffffffffffffffffffffffff1916149050919050565b60008073ffffffffffffffffffffffffffffffffffffffff166002600084815260200190815260200160002060009054906101000a900473ffffffffffffffffffffffffffffffffffffffff1673ffffffffffffffffffffffffffffffffffffffff1614159050919050565b600033905090565b816004600083815260200190815260200160002060006101000a81548173ffffffffffffffffffffffffffffffffffffffff021916908373ffffffffffffffffffffffffffffffffffffffff160217905550808273ffffffffffffffffffffffffffffffffffffffff16610f3f836107ea565b73ffffffffffffffffffffffffffffffffffffffff167f8c5be1e5ebec7d5bd14f71427d1e84f3dd0314c0f7b2291e5b200ac8c7c3b92560405160405180910390a45050565b600081600001549050919050565b6000610f9e82610e58565b610fdd576040517f08c379a0000000000000000000000000000000000000000000000000000000008152600401610fd490612574565b60405180910390fd5b6000610fe8836107ea565b90508073ffffffffffffffffffffffffffffffffffffffff168473ffffffffffffffffffffffffffffffffffffffff16148061105757508373ffffffffffffffffffffffffffffffffffffffff1661103f84610509565b73ffffffffffffffffffffffffffffffffffffffff16145b8061106857506110678185610c62565b5b91505092915050565b8273ffffffffffffffffffffffffffffffffffffffff16611091826107ea565b73ffffffffffffffffffffffffffffffffffffffff16146110e7576040517f08c379a00000000000000000000000000000000000000000000000000000000081526004016110de906124f4565b60405180910390fd5b600073ffffffffffffffffffffffffffffffffffffffff168273ffffffffffffffffffffffffffffffffffffffff161415611157576040517f08c379a000000000000000000000000000000000000000000000000000000000815260040161114e90612534565b60405180910390fd5b6111628383836116cd565b61116d600082610ecc565b6001600360008573ffffffffffffffffffffffffffffffffffffffff1673ffffffffffffffffffffffffffffffffffffffff16815260200190815260200160002060008282546111bd9190612860565b925050819055506001600360008473ffffffffffffffffffffffffffffffffffffffff1673ffffffffffffffffffffffffffffffffffffffff168152602001908152602001600020600082825461121491906127d9565b92505081905550816002600083815260200190815260200160002060006101000a81548173ffffffffffffffffffffffffffffffffffffffff021916908373ffffffffffffffffffffffffffffffffffffffff160217905550808273ffffffffffffffffffffffffffffffffffffffff168473ffffffffffffffffffffffffffffffffffffffff167fddf252ad1be2c89b69c2b068fc378daa952ba7f163c4a11628f55a4df523b3ef60405160405180910390a46112d38383836116d2565b505050565b6001816000016000828254019250508190555050565b6113088282604051806020016040528060008152506116d7565b5050565b61131582610e58565b611354576040517f08c379a000000000000000000000000000000000000000000000000000000000815260040161134b906125f4565b60405180910390fd5b8060066000848152602001908152602001600020908051906020019061137b929190611c27565b505050565b6000600760009054906101000a900473ffffffffffffffffffffffffffffffffffffffff16905081600760006101000a81548173ffffffffffffffffffffffffffffffffffffffff021916908373ffffffffffffffffffffffffffffffffffffffff1602179055508173ffffffffffffffffffffffffffffffffffffffff168173ffffffffffffffffffffffffffffffffffffffff167f8be0079c531659141344cd1fd0a4f28419497f9722a3daafe3b4186f6b6457e060405160405180910390a35050565b8173ffffffffffffffffffffffffffffffffffffffff168373ffffffffffffffffffffffffffffffffffffffff1614156114b5576040517f08c379a00000000000000000000000000000000000000000000000000000000081526004016114ac90612554565b60405180910390fd5b80600560008573ffffffffffffffffffffffffffffffffffffffff1673ffffffffffffffffffffffffffffffffffffffff16815260200190815260200160002060008473ffffffffffffffffffffffffffffffffffffffff1673ffffffffffffffffffffffffffffffffffffffff16815260200190815260200160002060006101000a81548160ff0219169083151502179055508173ffffffffffffffffffffffffffffffffffffffff168373ffffffffffffffffffffffffffffffffffffffff167f17307eab39ab6107e8899845ad3d59bd9653f200f220920489ca2b5937696c31836040516115a69190612477565b60405180910390a3505050565b6115be848484611071565b6115ca84848484611732565b611609576040517f08c379a0000000000000000000000000000000000000000000000000000000008152600401611600906124b4565b60405180910390fd5b50505050565b606060405180602001604052806000815250905090565b606061163182610e58565b611670576040517f08c379a000000000000000000000000000000000000000000000000000000000815260040161166790612694565b60405180910390fd5b600061167a61160f565b9050600081511161169a57604051806020016040528060008152506116c5565b806116a4846118c9565b6040516020016116b59291906123ec565b6040516020818303038152906040525b915050919050565b505050565b505050565b6116e18383611a2a565b6116ee6000848484611732565b61172d576040517f08c379a0000000000000000000000000000000000000000000000000000000008152600401611724906124b4565b60405180910390fd5b505050565b60006117538473ffffffffffffffffffffffffffffffffffffffff16611c04565b156118bc578373ffffffffffffffffffffffffffffffffffffffff1663150b7a0261177c610ec4565b8786866040518563ffffffff1660e01b815260040161179e949392919061242b565b602060405180830381600087803b1580156117b857600080fd5b505af19250505080156117e957506040513d601f19601f820116820180604052508101906117e69190612003565b60015b61186c573d8060008114611819576040519150601f19603f3d011682016040523d82523d6000602084013e61181e565b606091505b50600081511415611864576040517f08c379a000000000000000000000000000000000000000000000000000000000815260040161185b906124b4565b60405180910390fd5b805181602001fd5b63150b7a0260e01b7bffffffffffffffffffffffffffffffffffffffffffffffffffffffff1916817bffffffffffffffffffffffffffffffffffffffffffffffffffffffff1916149150506118c1565b600190505b949350505050565b60606000821415611911576040518060400160405280600181526020017f30000000000000000000000000000000000000000000000000000000000000008152509050611a25565b600082905060005b6000821461194357808061192c906129ad565b915050600a8261193c919061282f565b9150611919565b60008167ffffffffffffffff81111561195f5761195e612ae3565b5b6040519080825280601f01601f1916602001820160405280156119915781602001600182028036833780820191505090505b5090505b60008514611a1e576001826119aa9190612860565b9150600a856119b991906129f6565b60306119c591906127d9565b60f81b8183815181106119db576119da612ab4565b5b60200101907effffffffffffffffffffffffffffffffffffffffffffffffffffffffffffff1916908160001a905350600a85611a17919061282f565b9450611995565b8093505050505b919050565b600073ffffffffffffffffffffffffffffffffffffffff168273ffffffffffffffffffffffffffffffffffffffff161415611a9a576040517f08c379a0000000000000000000000000000000000000000000000000000000008152600401611a9190612614565b60405180910390fd5b611aa381610e58565b15611ae3576040517f08c379a0000000000000000000000000000000000000000000000000000000008152600401611ada90612514565b60405180910390fd5b611aef600083836116cd565b6001600360008473ffffffffffffffffffffffffffffffffffffffff1673ffffffffffffffffffffffffffffffffffffffff1681526020019081526020016000206000828254611b3f91906127d9565b92505081905550816002600083815260200190815260200160002060006101000a81548173ffffffffffffffffffffffffffffffffffffffff021916908373ffffffffffffffffffffffffffffffffffffffff160217905550808273ffffffffffffffffffffffffffffffffffffffff16600073ffffffffffffffffffffffffffffffffffffffff167fddf252ad1be2c89b69c2b068fc378daa952ba7f163c4a11628f55a4df523b3ef60405160405180910390a4611c00600083836116d2565b5050565b6000808273ffffffffffffffffffffffffffffffffffffffff163b119050919050565b828054611c339061294a565b90600052602060002090601f016020900481019282611c555760008555611c9c565b82601f10611c6e57805160ff1916838001178555611c9c565b82800160010185558215611c9c579182015b82811115611c9b578251825591602001919060010190611c80565b5b509050611ca99190611cad565b5090565b5b80821115611cc6576000816000905550600101611cae565b5090565b6000611cdd611cd884612734565b61270f565b905082815260208101848484011115611cf957611cf8612b17565b5b611d04848285612908565b509392505050565b6000611d1f611d1a84612765565b61270f565b905082815260208101848484011115611d3b57611d3a612b17565b5b611d46848285612908565b509392505050565b600081359050611d5d8161302d565b92915050565b600081359050611d7281613044565b92915050565b600081359050611d878161305b565b92915050565b600081519050611d9c8161305b565b92915050565b600082601f830112611db757611db6612b12565b5b8135611dc7848260208601611cca565b91505092915050565b600082601f830112611de557611de4612b12565b5b8135611df5848260208601611d0c565b91505092915050565b600081359050611e0d81613072565b92915050565b600060208284031215611e2957611e28612b21565b5b6000611e3784828501611d4e565b91505092915050565b60008060408385031215611e5757611e56612b21565b5b6000611e6585828601611d4e565b9250506020611e7685828601611d4e565b9150509250929050565b600080600060608486031215611e9957611e98612b21565b5b6000611ea786828701611d4e565b9350506020611eb886828701611d4e565b9250506040611ec986828701611dfe565b9150509250925092565b60008060008060808587031215611eed57611eec612b21565b5b6000611efb87828801611d4e565b9450506020611f0c87828801611d4e565b9350506040611f1d87828801611dfe565b925050606085013567ffffffffffffffff811115611f3e57611f3d612b1c565b5b611f4a87828801611da2565b91505092959194509250565b60008060408385031215611f6d57611f6c612b21565b5b6000611f7b85828601611d4e565b9250506020611f8c85828601611d63565b9150509250929050565b60008060408385031215611fad57611fac612b21565b5b6000611fbb85828601611d4e565b9250506020611fcc85828601611dfe565b9150509250929050565b600060208284031215611fec57611feb612b21565b5b6000611ffa84828501611d78565b91505092915050565b60006020828403121561201957612018612b21565b5b600061202784828501611d8d565b91505092915050565b60006020828403121561204657612045612b21565b5b600082013567ffffffffffffffff81111561206457612063612b1c565b5b61207084828501611dd0565b91505092915050565b60006020828403121561208f5761208e612b21565b5b600061209d84828501611dfe565b91505092915050565b6120af81612894565b82525050565b6120be816128a6565b82525050565b60006120cf82612796565b6120d981856127ac565b93506120e9818560208601612917565b6120f281612b26565b840191505092915050565b6000612108826127a1565b61211281856127bd565b9350612122818560208601612917565b61212b81612b26565b840191505092915050565b6000612141826127a1565b61214b81856127ce565b935061215b818560208601612917565b80840191505092915050565b60006121746032836127bd565b915061217f82612b37565b604082019050919050565b60006121976026836127bd565b91506121a282612b86565b604082019050919050565b60006121ba6025836127bd565b91506121c582612bd5565b604082019050919050565b60006121dd601c836127bd565b91506121e882612c24565b602082019050919050565b60006122006024836127bd565b915061220b82612c4d565b604082019050919050565b60006122236019836127bd565b915061222e82612c9c565b602082019050919050565b6000612246602c836127bd565b915061225182612cc5565b604082019050919050565b60006122696038836127bd565b915061227482612d14565b604082019050919050565b600061228c602a836127bd565b915061229782612d63565b604082019050919050565b60006122af6029836127bd565b91506122ba82612db2565b604082019050919050565b60006122d2602e836127bd565b91506122dd82612e01565b604082019050919050565b60006122f56020836127bd565b915061230082612e50565b602082019050919050565b60006123186031836127bd565b915061232382612e79565b604082019050919050565b600061233b602c836127bd565b915061234682612ec8565b604082019050919050565b600061235e6020836127bd565b915061236982612f17565b602082019050919050565b6000612381602f836127bd565b915061238c82612f40565b604082019050919050565b60006123a46021836127bd565b91506123af82612f8f565b604082019050919050565b60006123c76031836127bd565b91506123d282612fde565b604082019050919050565b6123e6816128fe565b82525050565b60006123f88285612136565b91506124048284612136565b91508190509392505050565b600060208201905061242560008301846120a6565b92915050565b600060808201905061244060008301876120a6565b61244d60208301866120a6565b61245a60408301856123dd565b818103606083015261246c81846120c4565b905095945050505050565b600060208201905061248c60008301846120b5565b92915050565b600060208201905081810360008301526124ac81846120fd565b905092915050565b600060208201905081810360008301526124cd81612167565b9050919050565b600060208201905081810360008301526124ed8161218a565b9050919050565b6000602082019050818103600083015261250d816121ad565b9050919050565b6000602082019050818103600083015261252d816121d0565b9050919050565b6000602082019050818103600083015261254d816121f3565b9050919050565b6000602082019050818103600083015261256d81612216565b9050919050565b6000602082019050818103600083015261258d81612239565b9050919050565b600060208201905081810360008301526125ad8161225c565b9050919050565b600060208201905081810360008301526125cd8161227f565b9050919050565b600060208201905081810360008301526125ed816122a2565b9050919050565b6000602082019050818103600083015261260d816122c5565b9050919050565b6000602082019050818103600083015261262d816122e8565b9050919050565b6000602082019050818103600083015261264d8161230b565b9050919050565b6000602082019050818103600083015261266d8161232e565b9050919050565b6000602082019050818103600083015261268d81612351565b9050919050565b600060208201905081810360008301526126ad81612374565b9050919050565b600060208201905081810360008301526126cd81612397565b9050919050565b600060208201905081810360008301526126ed816123ba565b9050919050565b600060208201905061270960008301846123dd565b92915050565b600061271961272a565b9050612725828261297c565b919050565b6000604051905090565b600067ffffffffffffffff82111561274f5761274e612ae3565b5b61275882612b26565b9050602081019050919050565b600067ffffffffffffffff8211156127805761277f612ae3565b5b61278982612b26565b9050602081019050919050565b600081519050919050565b600081519050919050565b600082825260208201905092915050565b600082825260208201905092915050565b600081905092915050565b60006127e4826128fe565b91506127ef836128fe565b9250827fffffffffffffffffffffffffffffffffffffffffffffffffffffffffffffffff0382111561282457612823612a27565b5b828201905092915050565b600061283a826128fe565b9150612845836128fe565b92508261285557612854612a56565b5b828204905092915050565b600061286b826128fe565b9150612876836128fe565b92508282101561288957612888612a27565b5b828203905092915050565b600061289f826128de565b9050919050565b60008115159050919050565b60007fffffffff0000000000000000000000000000000000000000000000000000000082169050919050565b600073ffffffffffffffffffffffffffffffffffffffff82169050919050565b6000819050919050565b82818337600083830152505050565b60005b8381101561293557808201518184015260208101905061291a565b83811115612944576000848401525b50505050565b6000600282049050600182168061296257607f821691505b6020821081141561297657612975612a85565b5b50919050565b61298582612b26565b810181811067ffffffffffffffff821117156129a4576129a3612ae3565b5b80604052505050565b60006129b8826128fe565b91507fffffffffffffffffffffffffffffffffffffffffffffffffffffffffffffffff8214156129eb576129ea612a27565b5b600182019050919050565b6000612a01826128fe565b9150612a0c836128fe565b925082612a1c57612a1b612a56565b5b828206905092915050565b7f4e487b7100000000000000000000000000000000000000000000000000000000600052601160045260246000fd5b7f4e487b7100000000000000000000000000000000000000000000000000000000600052601260045260246000fd5b7f4e487b7100000000000000000000000000000000000000000000000000000000600052602260045260246000fd5b7f4e487b7100000000000000000000000000000000000000000000000000000000600052603260045260246000fd5b7f4e487b7100000000000000000000000000000000000000000000000000000000600052604160045260246000fd5b600080fd5b600080fd5b600080fd5b600080fd5b6000601f19601f8301169050919050565b7f4552433732313a207472616e7366657220746f206e6f6e20455243373231526560008201527f63656976657220696d706c656d656e7465720000000000000000000000000000602082015250565b7f4f776e61626c653a206e6577206f776e657220697320746865207a65726f206160008201527f6464726573730000000000000000000000000000000000000000000000000000602082015250565b7f4552433732313a207472616e736665722066726f6d20696e636f72726563742060008201527f6f776e6572000000000000000000000000000000000000000000000000000000602082015250565b7f4552433732313a20746f6b656e20616c7265616479206d696e74656400000000600082015250565b7f4552433732313a207472616e7366657220746f20746865207a65726f2061646460008201527f7265737300000000000000000000000000000000000000000000000000000000602082015250565b7f4552433732313a20617070726f766520746f2063616c6c657200000000000000600082015250565b7f4552433732313a206f70657261746f7220717565727920666f72206e6f6e657860008201527f697374656e7420746f6b656e0000000000000000000000000000000000000000602082015250565b7f4552433732313a20617070726f76652063616c6c6572206973206e6f74206f7760008201527f6e6572206e6f7220617070726f76656420666f7220616c6c0000000000000000602082015250565b7f4552433732313a2062616c616e636520717565727920666f7220746865207a6560008201527f726f206164647265737300000000000000000000000000000000000000000000602082015250565b7f4552433732313a206f776e657220717565727920666f72206e6f6e657869737460008201527f656e7420746f6b656e0000000000000000000000000000000000000000000000602082015250565b7f45524337323155524953746f726167653a2055524920736574206f66206e6f6e60008201527f6578697374656e7420746f6b656e000000000000000000000000000000000000602082015250565b7f4552433732313a206d696e7420746f20746865207a65726f2061646472657373600082015250565b7f45524337323155524953746f726167653a2055524920717565727920666f722060008201527f6e6f6e6578697374656e7420746f6b656e000000000000000000000000000000602082015250565b7f4552433732313a20617070726f76656420717565727920666f72206e6f6e657860008201527f697374656e7420746f6b656e0000000000000000000000000000000000000000602082015250565b7f4f776e61626c653a2063616c6c6572206973206e6f7420746865206f776e6572600082015250565b7f4552433732314d657461646174613a2055524920717565727920666f72206e6f60008201527f6e6578697374656e7420746f6b656e0000000000000000000000000000000000602082015250565b7f4552433732313a20617070726f76616c20746f2063757272656e74206f776e6560008201527f7200000000000000000000000000000000000000000000000000000000000000602082015250565b7f4552433732313a207472616e736665722063616c6c6572206973206e6f74206f60008201527f776e6572206e6f7220617070726f766564000000000000000000000000000000602082015250565b61303681612894565b811461304157600080fd5b50565b61304d816128a6565b811461305857600080fd5b50565b613064816128b2565b811461306f57600080fd5b50565b61307b816128fe565b811461308657600080fd5b5056fea26469706673582212208b927d10111029889d2c594aa2142987624a9ec165011acf1534a3e1a1e565aa64736f6c63430008070033",
  "linkReferences": {},
  "deployedLinkReferences": {}
}