{
  "_format": "hh-sol-artifact-1",
  "contractName": "Market",
  "sourceName": "contracts/Market.sol",
  "abi": [
    {
      "anonymous": false,
      "inputs": [
        {
          "indexed": false,
          "internalType": "uint256",
          "name": "TokenListId",
          "type": "uint256"
        },
        {
          "indexed": false,
          "internalType": "address",
          "name": "seller",
          "type": "address"
        }
      ],
      "name": "Canceled",
      "type": "event"
    },
    {
      "anonymous": false,
      "inputs": [
        {
          "indexed": false,
          "internalType": "uint256",
          "name": "tokenId",
          "type": "uint256"
        },
        {
          "indexed": false,
          "internalType": "address",
          "name": "tokenAddress",
          "type": "address"
        },
        {
          "indexed": false,
          "internalType": "uint256",
          "name": "price",
          "type": "uint256"
        },
        {
          "indexed": false,
          "internalType": "address",
          "name": "seller",
          "type": "address"
        },
        {
          "indexed": false,
          "internalType": "uint256",
          "name": "TokenListId",
          "type": "uint256"
        }
      ],
      "name": "Listed",
      "type": "event"
    },
    {
      "anonymous": false,
      "inputs": [
        {
          "indexed": false,
          "internalType": "uint256",
          "name": "tokenId",
          "type": "uint256"
        },
        {
          "indexed": false,
          "internalType": "address",
          "name": "tokenAddress",
          "type": "address"
        },
        {
          "indexed": false,
          "internalType": "uint256",
          "name": "price",
          "type": "uint256"
        },
        {
          "indexed": false,
          "internalType": "address",
          "name": "seller",
          "type": "address"
        },
        {
          "indexed": false,
          "internalType": "uint256",
          "name": "TokenListId",
          "type": "uint256"
        }
      ],
      "name": "Sale",
      "type": "event"
    },
    {
      "inputs": [
        {
          "internalType": "uint256",
          "name": "tokenId",
          "type": "uint256"
        }
      ],
      "name": "BuyToken",
      "outputs": [],
      "stateMutability": "payable",
      "type": "function"
    },
    {
      "inputs": [
        {
          "internalType": "uint256",
          "name": "tokenId",
          "type": "uint256"
        }
      ],
      "name": "cancel",
      "outputs": [],
      "stateMutability": "nonpayable",
      "type": "function"
    },
    {
      "inputs": [
        {
          "internalType": "uint256",
          "name": "TokenlistedId",
          "type": "uint256"
        }
      ],
      "name": "getToken",
      "outputs": [
        {
          "components": [
            {
              "internalType": "uint256",
              "name": "tokenId",
              "type": "uint256"
            },
            {
              "internalType": "address",
              "name": "tokenAddress",
              "type": "address"
            },
            {
              "internalType": "uint256",
              "name": "price",
              "type": "uint256"
            },
            {
              "internalType": "address",
              "name": "seller",
              "type": "address"
            },
            {
              "internalType": "enum Market.tokenStatus",
              "name": "status",
              "type": "uint8"
            }
          ],
          "internalType": "struct Market.Tokens",
          "name": "",
          "type": "tuple"
        }
      ],
      "stateMutability": "view",
      "type": "function"
    },
    {
      "inputs": [
        {
          "internalType": "uint256",
          "name": "tokenId",
          "type": "uint256"
        },
        {
          "internalType": "address",
          "name": "tokenAddress",
          "type": "address"
        },
        {
          "internalType": "uint256",
          "name": "price",
          "type": "uint256"
        }
      ],
      "name": "listTokens",
      "outputs": [],
      "stateMutability": "nonpayable",
      "type": "function"
    }
  ],
  "bytecode": "0x60806040526000805534801561001457600080fd5b50610f28806100246000396000f3fe60806040526004361061003f5760003560e01c806340e58ee514610044578063b1a98dc01461006d578063e4b50cb814610096578063fcb0368c146100d3575b600080fd5b34801561005057600080fd5b5061006b60048036038101906100669190610a4d565b6100ef565b005b34801561007957600080fd5b50610094600480360381019061008f9190610a7a565b610325565b005b3480156100a257600080fd5b506100bd60048036038101906100b89190610a4d565b61054c565b6040516100ca9190610c80565b60405180910390f35b6100ed60048036038101906100e89190610a4d565b610674565b005b60006001600083815260200190815260200160002090506000600281111561011a57610119610e01565b5b8160030160149054906101000a900460ff16600281111561013e5761013d610e01565b5b1461017e576040517f08c379a000000000000000000000000000000000000000000000000000000000815260040161017590610c20565b60405180910390fd5b8060030160009054906101000a900473ffffffffffffffffffffffffffffffffffffffff1673ffffffffffffffffffffffffffffffffffffffff163373ffffffffffffffffffffffffffffffffffffffff1614610210576040517f08c379a000000000000000000000000000000000000000000000000000000000815260040161020790610c60565b60405180910390fd5b60018160030160146101000a81548160ff0219169083600281111561023857610237610e01565b5b021790555060006001600084815260200190815260200160002060010160009054906101000a900473ffffffffffffffffffffffffffffffffffffffff1690508073ffffffffffffffffffffffffffffffffffffffff166323b872dd3033866040518463ffffffff1660e01b81526004016102b593929190610be9565b600060405180830381600087803b1580156102cf57600080fd5b505af11580156102e3573d6000803e3d6000fd5b505050507fba05e869a56a216a7344a605ccad13464848815ad8bdf8d93ad788963a3cfdac8333604051610318929190610c9b565b60405180910390a1505050565b60008290508073ffffffffffffffffffffffffffffffffffffffff166323b872dd3330876040518463ffffffff1660e01b815260040161036793929190610be9565b600060405180830381600087803b15801561038157600080fd5b505af1158015610395573d6000803e3d6000fd5b5050505060006040518060a001604052808681526020018573ffffffffffffffffffffffffffffffffffffffff1681526020018481526020013373ffffffffffffffffffffffffffffffffffffffff168152602001600060028111156103fe576103fd610e01565b5b815250905060008081548092919061041590610d89565b91905055508060016000805481526020019081526020016000206000820151816000015560208201518160010160006101000a81548173ffffffffffffffffffffffffffffffffffffffff021916908373ffffffffffffffffffffffffffffffffffffffff1602179055506040820151816002015560608201518160030160006101000a81548173ffffffffffffffffffffffffffffffffffffffff021916908373ffffffffffffffffffffffffffffffffffffffff16021790555060808201518160030160146101000a81548160ff021916908360028111156104fc576104fb610e01565b5b02179055509050507f9791797c382de5e73cc7c32c32ffd8304e9b9cc1f6afd967990c1edd0729dba98585853360005460405161053d959493929190610cc4565b60405180910390a15050505050565b6105546109b6565b600160008381526020019081526020016000206040518060a0016040529081600082015481526020016001820160009054906101000a900473ffffffffffffffffffffffffffffffffffffffff1673ffffffffffffffffffffffffffffffffffffffff1673ffffffffffffffffffffffffffffffffffffffff168152602001600282015481526020016003820160009054906101000a900473ffffffffffffffffffffffffffffffffffffffff1673ffffffffffffffffffffffffffffffffffffffff1673ffffffffffffffffffffffffffffffffffffffff1681526020016003820160149054906101000a900460ff16600281111561065757610656610e01565b5b600281111561066957610668610e01565b5b815250509050919050565b60006001600083815260200190815260200160002090506000600281111561069f5761069e610e01565b5b8160030160149054906101000a900460ff1660028111156106c3576106c2610e01565b5b14610703576040517f08c379a00000000000000000000000000000000000000000000000000000000081526004016106fa90610c20565b60405180910390fd5b8060030160009054906101000a900473ffffffffffffffffffffffffffffffffffffffff1673ffffffffffffffffffffffffffffffffffffffff163373ffffffffffffffffffffffffffffffffffffffff161415610796576040517f08c379a000000000000000000000000000000000000000000000000000000000815260040161078d90610c60565b60405180910390fd5b806002015434146107dc576040517f08c379a00000000000000000000000000000000000000000000000000000000081526004016107d390610c40565b60405180910390fd5b60018160030160146101000a81548160ff0219169083600281111561080457610803610e01565b5b021790555060006001600084815260200190815260200160002060010160009054906101000a900473ffffffffffffffffffffffffffffffffffffffff1690508073ffffffffffffffffffffffffffffffffffffffff166323b872dd3033866040518463ffffffff1660e01b815260040161088193929190610be9565b600060405180830381600087803b15801561089b57600080fd5b505af11580156108af573d6000803e3d6000fd5b505050508160030160009054906101000a900473ffffffffffffffffffffffffffffffffffffffff1673ffffffffffffffffffffffffffffffffffffffff166108fc83600201549081150290604051600060405180830381858888f19350505050158015610921573d6000803e3d6000fd5b507fb0f9de78b94c06b90cde367557c1199cc1db0e8ed7c2ff6fa3fd2bfebb12af1982600001548360010160009054906101000a900473ffffffffffffffffffffffffffffffffffffffff1684600201548560030160009054906101000a900473ffffffffffffffffffffffffffffffffffffffff16876040516109a9959493929190610cc4565b60405180910390a1505050565b6040518060a0016040528060008152602001600073ffffffffffffffffffffffffffffffffffffffff16815260200160008152602001600073ffffffffffffffffffffffffffffffffffffffff16815260200160006002811115610a1d57610a1c610e01565b5b81525090565b600081359050610a3281610ec4565b92915050565b600081359050610a4781610edb565b92915050565b600060208284031215610a6357610a62610e30565b5b6000610a7184828501610a38565b91505092915050565b600080600060608486031215610a9357610a92610e30565b5b6000610aa186828701610a38565b9350506020610ab286828701610a23565b9250506040610ac386828701610a38565b9150509250925092565b610ad681610d28565b82525050565b610ae581610d28565b82525050565b610af481610d77565b82525050565b6000610b07601583610d17565b9150610b1282610e35565b602082019050919050565b6000610b2a601583610d17565b9150610b3582610e5e565b602082019050919050565b6000610b4d601683610d17565b9150610b5882610e87565b602082019050919050565b60a082016000820151610b796000850182610bcb565b506020820151610b8c6020850182610acd565b506040820151610b9f6040850182610bcb565b506060820151610bb26060850182610acd565b506080820151610bc56080850182610aeb565b50505050565b610bd481610d6d565b82525050565b610be381610d6d565b82525050565b6000606082019050610bfe6000830186610adc565b610c0b6020830185610adc565b610c186040830184610bda565b949350505050565b60006020820190508181036000830152610c3981610afa565b9050919050565b60006020820190508181036000830152610c5981610b1d565b9050919050565b60006020820190508181036000830152610c7981610b40565b9050919050565b600060a082019050610c956000830184610b63565b92915050565b6000604082019050610cb06000830185610bda565b610cbd6020830184610adc565b9392505050565b600060a082019050610cd96000830188610bda565b610ce66020830187610adc565b610cf36040830186610bda565b610d006060830185610adc565b610d0d6080830184610bda565b9695505050505050565b600082825260208201905092915050565b6000610d3382610d4d565b9050919050565b6000819050610d4882610eb0565b919050565b600073ffffffffffffffffffffffffffffffffffffffff82169050919050565b6000819050919050565b6000610d8282610d3a565b9050919050565b6000610d9482610d6d565b91507fffffffffffffffffffffffffffffffffffffffffffffffffffffffffffffffff821415610dc757610dc6610dd2565b5b600182019050919050565b7f4e487b7100000000000000000000000000000000000000000000000000000000600052601160045260246000fd5b7f4e487b7100000000000000000000000000000000000000000000000000000000600052602160045260246000fd5b600080fd5b7f6c697374696e67206973206e6f74206176746976650000000000000000000000600082015250565b7f696e73756666696369656e7420706179656d656e740000000000000000000000600082015250565b7f73656c6c65722063616e6e6f7420626520627579657200000000000000000000600082015250565b60038110610ec157610ec0610e01565b5b50565b610ecd81610d28565b8114610ed857600080fd5b50565b610ee481610d6d565b8114610eef57600080fd5b5056fea264697066735822122000ff738d3be60b04f5fb99b4dd7d6a69f1720cc1b748143300f62b5b54fb044d64736f6c63430008070033",
  "linkReferences": {},
  "deployedLinkReferences": {}
}